First Trade captured from RTN
8=FIXT.1.1|9=67|35=0|34=50|1128=8|49=RTNSFIXUAT|56=JAMIFIXUAT|52=20221206-14:43:04|10=216|
8=FIXT.1.1|9=1248|35=AE|34=51|1128=8|49=RTNSFIXUAT|56=JAMIFIXUAT|52=20221206-14:43:16|571=47898725|31=1.47000|194=1.11110|195=0.0|423=20|552=2|54=1|37=3805005$
8=FIXT.1.1|9=147|35=3|34=63|49=JAMIFIXUAT|52=20221206-14:43:16.374|56=RTNSFIXUAT|45=51|58=Tag not defined for this message type, field=11301|371=11301|372=AE|373=$
8=FIXT.1.1|9=67|35=0|34=52|1128=8|49=RTNSFIXUAT|56=JAMIFIXUAT|52=20221206-14:43:46|10=224|
8=FIXT.1.1|9=64|35=0|34=64|49=JAMIFIXUAT|52=20221206-14:43:46.371|56=RTNSFIXUAT|10=103|
8=FIXT.1.1|9=67|35=0|34=53|1128=8|49=RTNSFIXUAT|56=JAMIFIXUAT|52=20221206-14:44:16|10=223|
8=FIXT.1.1|9=64|35=0|34=65|49=JAMIFIXUAT|52=20221206-14:44:16.403|56=RTNSFIXUAT|10=098|
8=FIXT.1.1|9=67|35=0|34=54|1128=8|49=RTNSFIXUAT|56=JAMIFIXUAT|52=20221206-14:44:46|10=227|
8=FIXT.1.1|9=64|35=0|34=66|49=JAMIFIXUAT|52=20221206-14:44:46.436|56=RTNSFIXUAT|10=108|
8=FIXT.1.1|9=67|35=0|34=55|1128=8|49=RTNSFIXUAT|56=JAMIFIXUAT|52=20221206-14:45:16|10=226|
8=FIXT.1.1|9=64|35=0|34=67|49=JAMIFIXUAT|52=20221206-14:45:16.469|56=RTNSFIXUAT|10=113|
8=FIXT.1.1|9=1423|35=AE|34=56|1128=8|49=RTNSFIXUAT|56=JAMIFIXUAT|52=20221206-14:45:31|571=47898746|31=1.47000|195=0|423=20|552=1|54=1|37=MakerJAMI695566MKGN221$
8=FIXT.1.1|9=145|35=3|34=68|49=JAMIFIXUAT|52=20221206-14:45:31.895|56=RTNSFIXUAT|45=56|58=Tag not defined for this message type, field=5967|371=5967|372=AE|373=2
8=FIXT.1.1|9=67|35=0|34=57|1128=8|49=RTNSFIXUAT|56=JAMIFIXUAT|52=20221206-14:46:01|10=223|



8=FIXT.1.1|9=68|35=0|34=123|1128=8|49=RTNSFIXUAT|56=JAMIFIXUAT|52=20221206-15:19:04|10=014|
8=FIXT.1.1|9=1707|35=AE|34=124|1128=8|49=RTNSFIXUAT|56=JAMIFIXUAT|52=20221206-15:19:24|571=47900303|31=1.47000|552=1|54=1|37=MakerJAMI723692MKGN2212061519T|11=NOREF|826=0|78=1|79=UNSPECIFIED|80$
8=FIXT.1.1|9=147|35=3|34=136|49=JAMIFIXUAT|52=20221206-15:19:24.810|56=RTNSFIXUAT|45=124|58=Tag not defined for this message type, field=5967|371=5967|372=AE|373=2|10=222|
8=FIXT.1.1|9=1418|35=AE|34=125|1128=8|49=RTNSFIXUAT|56=JAMIFIXUAT|52=20221206-15:19:41|571=47900323|31=1.47000|423=20|552=1|54=1|37=MakerJAMI711640MKGN2212061519T|11=NOREF|826=0|78=1|79=UNSPECI$
8=FIXT.1.1|9=147|35=3|34=137|49=JAMIFIXUAT|52=20221206-15:19:41.948|56=RTNSFIXUAT|45=125|58=Tag not defined for this message type, field=5967|371=5967|372=AE|373=2|10=235|
8=FIXT.1.1|9=74|35=1|34=138|49=JAMIFIXUAT|52=20221206-15:19:50.036|56=RTNSFIXUAT|112=TEST|10=170|
8=FIXT.1.1|9=77|35=0|34=126|1128=8|49=RTNSFIXUAT|56=JAMIFIXUAT|52=20221206-15:19:50|112=TEST|10=036|
8=FIXT.1.1|9=1492|35=AE|34=127|1128=8|49=RTNSFIXUAT|56=JAMIFIXUAT|52=20221206-15:20:00|571=47900352|31=1.47000|195=0|423=20|552=1|54=1|37=TakerJAMI244947TKGN2212061519M|11=NOREF|826=0|78=1|79=$
8=FIXT.1.1|9=147|35=3|34=139|49=JAMIFIXUAT|52=20221206-15:20:00.775|56=RTNSFIXUAT|45=127|58=Tag not defined for this message type, field=5967|371=5967|372=AE|373=2|10=224|
8=FIXT.1.1|9=1436|35=AE|34=128|1128=8|49=RTNSFIXUAT|56=JAMIFIXUAT|52=20221206-15:20:16|571=47900379|31=1.47000|194=1.2217|195=12|423=20|552=1|54=1|37=MakerJAMI423062MKGN2212061519T|11=NOREF|826$
8=FIXT.1.1|9=147|35=3|34=140|49=JAMIFIXUAT|52=20221206-15:20:16.823|56=RTNSFIXUAT|45=128|58=Tag not defined for this message type, field=5967|371=5967|372=AE|373=2|10=218|
8=FIXT.1.1|9=1480|35=AE|34=129|1128=8|49=RTNSFIXUAT|56=JAMIFIXUAT|52=20221206-15:20:16|571=47900383|31=1.47000|195=0|423=20|552=1|54=1|37=TakerJAMI145623TKGN2212061520M|11=NOREF|826=0|78=1|79=$
8=FIXT.1.1|9=147|35=3|34=141|49=JAMIFIXUAT|52=20221206-15:20:16.870|56=RTNSFIXUAT|45=129|58=Tag not defined for this message type, field=5967|371=5967|372=AE|373=2|10=222|
8=FIXT.1.1|9=74|35=1|34=142|49=JAMIFIXUAT|52=20221206-15:20:36.036|56=RTNSFIXUAT|112=TEST|10=161|
8=FIXT.1.1|9=77|35=0|34=130|1128=8|49=RTNSFIXUAT|56=JAMIFIXUAT|52=20221206-15:20:36|112=TEST|10=027|
8=FIXT.1.1|9=1675|35=AE|34=131|1128=8|49=RTNSFIXUAT|56=JAMIFIXUAT|52=20221206-15:20:48|571=47900434|31=1.47000|552=1|54=1|37=TakerJAMI57937TKGN2212061520M|11=NOREF|826=0|78=1|79=UNSPECIFIED|80=$
8=FIXT.1.1|9=147|35=3|34=143|49=JAMIFIXUAT|52=20221206-15:20:48.964|56=RTNSFIXUAT|45=131|58=Tag not defined for this message type, field=5967|371=5967|372=AE|373=2|10=226|
8=FIXT.1.1|9=68|35=0|34=132|1128=8|49=RTNSFIXUAT|56=JAMIFIXUAT|52=20221206-15:21:18|10=012|
8=FIXT.1.1|9=65|35=0|34=144|49=JAMIFIXUAT|52=20221206-15:21:18.988|56=RTNSFIXUAT|10=161|
8=FIXT.1.1|9=68|35=0|34=133|1128=8|49=RTNSFIXUAT|56=JAMIFIXUAT|52=20221206-15:21:48|10=016|


8=FIXT.1.1|9=1418|35=AE|34=125|1128=8|49=RTNSFIXUAT|56=JAMIFIXUAT|52=20221206-15:19:41|571=47900323|31=1.47000|423=20|552=1|54=1|37=MakerJAMI711640MKGN2212061519T|11=NOREF|826=0|78=1|79=UNSPECI$